:04000000803114280F
:100008007E14803141010F1B0A280B280F288F1FEF
:100018000E280F28122880312D2080317E100900EB
:100028008031162881316C218031FB003B308400FF
:10003800813085002B308600003087000830813100
:1000480051218031F501F601F7017E104001803120
:10005800882841010F1F3128322879284D010F1EA9
:1000680036283728442840013308340403193D282A
:100078003E28792834088A0033080A008031792814
:100088000F1D472848285A28400135083604031907
:100098004E284F28572836088A0035080A0080312C
:1000A8004D018C0079284D018C0179280F195D28A4
:1000B8005E2879288F1A6128622864280C08F500C0
:1000C8008F1E6728682879287008710403196D281D
:1000D8006E2876280C08F80071088A0070080A0053
:1000E800803179280C08F500792841018F1F7D2877
:1000F8007E2883284D010C08F50041018F134D011E
:10010800101641010F130800813118218031603029
:10011800813100218031C8304001A0000030A100A9
:1001280081315D218031E4304001A0000030A10020
:100138008131632180312B304001A0000130A100C2
:100148008131572180312B308600003087002330E1
:1001580084000030850008304001A20016001A0013
:10016800A20BB2280830FA00233081314A218031AD
:100178000430FA00233081314321803181316921F3
:100188008031C528803114287B08031DCC28CD2850
:10019800E028730876020318D228D328E3287608C3
:1001A8007407F90079088600870178088100013012
:1001B800F9007908F607E328FB017808F60008003B
:1001C8000130F700F901720876020318EC28ED28CF
:1001D800FB28760840013707F80078088600870171
:1001E8000108F9000130F8007808F607FE287208BF
:1001F800013EF60079080800FA004D0190019101CE
:1002080092018F018F171008F039063890001114E9
:10021800121512177A358D0041018F130F13991794
:1002280019174D01901608004001141694157D0108
:100238002012A0112216A21516307B01A00015303D
:100248009F0014307C01C8001330C70008007708ED
:1002580003192F2930293729760803193429352914
:1002680037290130F6020130FB00F701080000349D
:1002780001340234033404340534063407344001AD
:10028800A0002008F4007A08F30008004001A0004C
:100298002008B7007A08F2000800FE0012001E00CD
:1002A800FE0B5229003440012108B4002008B30095
:1002B800080040012108F1002008F0000800400172
:1002C8002108B6002008B50008000B178B17080096
:0202D8000134EF
:020000040001F9
:08000000FF3FFF3FFF3FFF3F00
:0A000E008C3FE73FFF3FFF3FFF3F3D
:00000001FF
