:08000000803102288731FA2F3C
:100DF6007830F300603087317C278631FB000800AD
:100E06000330F300603087315D278731FB0008002F
:100E16004D0111150F0C890C0139F00011081F390D
:100E26007004031D172F182F0D2F000008004D0109
:100E360090018F01910192018F171008F03908383F
:100E460090004F308D0041010F1319134D0190167C
:100E560008004001141694157D012012A0112216D7
:100E6600A21516307B01A00015309F0014307C01BE
:100E7600C8001330C700080087312C278731873117
:100E86001A278731FB018731032787318631FB26F5
:100E96008731F601F7010130F6070030F73D760A93
:100EA600031D592F770A031D592F5A2F4E2F462FF0
:100EB60080310228F50075088731A5278731003A69
:100EC600031D662F672F692F00307B2F73084D0196
:100ED6008C000F0C890C0139F40011081F397404B9
:100EE600031D762F772F6C2F87310B278731013023
:100EF6000800F50075088731CF278731003A031DB2
:100F0600852F862F882F0030A42F4D0191150F0CA9
:100F1600890C0139F40011081F397404031D942F3C
:100F2600952F8A2F7308860087010C088100911679
:100F36001116111A9F2FA02F9C2F87310B2787314F
:100F460001300800F2004D010F0C890C0139F10047
:100F560011081F397104031DB12FB22FA62F1114CA
:100F66001118B62FB72FB32F72358C000F0C890CC2
:100F76000139F10011081F397104031DC32FC42F55
:100F8600B92F111FC72FC82FCD2F87310B278731B8
:100F96000030CE2F01300800F2004D010F0C890CF5
:100FA6000139F10011081F397104031DDB2FDC2FF5
:100FB600D02F11141118E02FE12FDD2F0314720D1D
:100FC6008C000F0C890C0139F10011081F397104CE
:100FD600031DEE2FEF2FE42F111FF22FF32FF82F03
:100FE60087310B2787310030F92F01300800F801CF
:0A0FF600F901FA01400187313F2F95
:020000040001F9
:08000000FF3FFF3FFF3FFF3F00
:0A000E008C3FE73FFF3FFF3FFF3F3D
:00000001FF
